:1000000012C02CC02BC020C129C028C027C026C0C8
:1000100025C0C0C023C022C021C020C01FC01EC038
:1000200001C11CC01BC011241FBECFE5D4E0DEBF40
:10003000CDBF10E0A0E6B0E0E8E7FCE002C005902C
:100040000D92A636B107D9F720E0A6E6B0E001C0D0
:100050001D92A139B207E1F7ADD502C6D1CF81E03B
:1000600089BF83E083BF089583E28FBD89E08EBDA1
:1000700084E690E099BD88BD08958FEF87BB18BADC
:1000800088B3836088BB14BA84B3806384BB15BA19
:1000900015BA8CE381BB12BA089585B58B6085BD16
:1000A00089B7806889BF88EC83BD089583E78DB9DF
:1000B0000895419A0895E199FECF90E09FBB8EBBD1
:1000C000E09A8DB30895DF92EF92FF920F931F9302
:1000D000CF93DF9300D000D0CDB7DEB71A8219825C
:1000E0001C821B8224E033E0EAE0F0E001E010E053
:1000F0000C0F1D1F030F111DBF017CD5D8018C9360
:10010000CB0131113150215089F784E0830F9FEFEB
:1001100029E141E05FE161E479E419E90DE0E5E21C
:10012000FE2EFFE9EF2EA3E0DA2EA32FB0E0E1E0F0
:10013000F0E0EC0FFD1FEA0FFB1FE081AF59BF4F4E
:10014000EA3030F5F0E0EE5CF94F0994DC923F5F65
:100150008313EBCF0F900F900F900F90DF91CF9103
:100160001F910F91FF90EF90DF900895EC92EFCFE9
:10017000FC92EDCF0C93EBCF1C93E9CF7C93E7CFB0
:100180006C93E5CF5C93E3CF4C93E1CF2C93DFCF1F
:100190009C93DDCF1F921FB61F9211248F939F93C4
:1001A000EF93FF938091600092B38095892382BB87
:1001B00080916000803270F580916000880F80939C
:1001C0006000809183008F5F80938300E0918300C3
:1001D000F0E0EF59FF4F908188E090FF21C0AC9A8A
:1001E0000000000000000000AD98000000000000CA
:1001F0000000AD9A9695815081F79091600082B38E
:10020000892B82BBFF91EF919F918F911F901FBE11
:100210001F90189584E08093600010928300D6CFE1
:10022000AC98DECF8F938FB78F939F9380917C0094
:1002300090917D00019690937D0080937C009F912A
:100240008F918FBF8F9118951F921FB61F92112407
:100250002F938F939F938091680090916900843CC5
:10026000994081F080916800909169000196909387
:100270006900809368009F918F912F911F901FBEFE
:100280001F901895C19A9B9B08C080916E0088238F
:1002900009F454C010926E00C19880916D008823BB
:1002A000D1F080916B0090916C00892BA1F080912E
:1002B0006A008F5F80936A0080916A008C3359F4E2
:1002C00080916B0090916C00019790936C008093EB
:1002D0006B0010926A00C09B35C080916D0088232E
:1002E00089F12091890080917500909176002817FE
:1002F000190640F1C09880917900882391F081E03F
:100300008093820010927900439880917C009091B4
:100310007D0090937B0080937A0010927D00109274
:100320007C0080917900811104C081E08093790084
:10033000439A10926900109268009DCF81E08093EB
:100340006E00AACFC09AD7CF20917A0030917B005F
:100350004CE3429FC001439F900D11249093810074
:10036000809380001092820008950F931F9388B5A8
:1003700099B5909378008093770080917E0090915A
:100380007F004091710050917200609173007091F4
:100390007400B0E0A0E0481759076A077B0708F02F
:1003A0005FC180917E0090917F00409171005091DB
:1003B00072006091730070917400841B950B909390
:1003C000760080937500809166009091670040915F
:1003D0007100509172006091730070917400B0E0F0
:1003E000A0E0481759076A077B0708F01EC18091F3
:1003F000850090918600409171005091720060914B
:10040000730070917400B0E0A0E084179507A60710
:10041000B70708F407C180918C0090918D0040913E
:100420007100509172006091730070917400B0E09F
:10043000A0E0481759076A077B0708F4F3C08091CA
:100440008B0090E0409185005091860000917100F2
:1004500010917200209173003091740070E060E0A0
:100460004017510762077307B0F040918C0050911C
:100470008D000091710010917200209173003091F5
:10048000740070E060E0401751076207730718F0CE
:100490008091870090E04091850050918600009106
:1004A000710010917200209173003091740070E01F
:1004B00060E00417150726073707B0F040918C005D
:1004C00050918D0000917100109172002091730085
:1004D0003091740070E060E00417150726073707B5
:1004E00018F080918F0090E030917000209188008A
:1004F00032131CC040918900209175003091760024
:100500004217130609F090F420917700309178009B
:10051000280F391F2F3F334008F096C028B539B552
:10052000280F391F39BD28BD1092700040917E0000
:1005300050917F0000917100109172002091730022
:100540003091740070E060E0401751076207730754
:1005500008F050C04091710050917200609173009A
:100560007091740020917E0030917F00421B530BEC
:10057000509376004093750020917E0030917F006B
:10058000232B09F073C080918C0090918D004091D5
:100590007100509172006091730070917400B0E02E
:1005A000A0E084179507A607B70708F45CC0809100
:1005B000870090E0309170002091880032131AC0BB
:1005C0004091890020917500309176004217130602
:1005D00009F080F42091770030917800821793071A
:1005E00008F052C028B539B5281B390B39BD28BDD4
:1005F0001092700080916E00882349F08091710004
:1006000090917200A0917300B09174005CDD9091A4
:10061000700080918800981302C0109270001F91A2
:100620000F91089590E080E00DCF20918900809196
:100630007500909176002817190618F480918E00A5
:1006400052CF90E080E050CF019720917700309119
:100650007800280F391F2F3F43E03407A8F762CFF7
:1006600090E080E063CF80918B00A3CF4091890020
:1006700020917500309176004217130608F09ACF4A
:1006800080918E0096CF019720917700309178006D
:1006900028173907C0F3A6CFEF92FF920F931F934D
:1006A000CF93DF9388EC90E090938100809380005B
:1006B000C0E008EC10E0D1E084E6E82EF12C809157
:1006C0006F00882309F494C0DF91CF911F910F919F
:1006D000FF90EF9008959A9B3FC080917E0090918B
:1006E0007F008C599F4F8031974250F480917E005B
:1006F00090917F008C599F4F90937F0080937E0054
:100700008FEF97E823E1815090402040E1F700C04F
:1007100000009A9B21C080917E0090917F008C57B1
:100720009C4F8031974250F480917E0090917F00E1
:100730008C579C4F90937F0080937E0080917E0029
:1007400090917F00C0DC8FEF93ED20E381509040CB
:100750002040E1F700C00000999B3BC080917E00E3
:1007600090917F008436910550F080917E009091A9
:100770007F008456910990937F0080937E008FEFD5
:1007800097E823E1815090402040E1F700C000004D
:10079000999B1FC080917E0090917F008438934088
:1007A00050F080917E0090917F0084589340909308
:1007B0007F0080937E0080917E0090917F0083DC9B
:1007C0008FEF93ED20E3815090402040E1F700C08F
:1007D000000080917E0090917F0075DC83B3C82F6C
:1007E000C87083FDBEC083B3982F917080FDCBC0CD
:1007F000CC2309F470CF8FEF99E628E18150904027
:100800002040E1F700C00000C198C13009F057CF87
:100810009A9B3BC080916B0090916C000196813F48
:10082000910548F480916B0090916C000196909333
:100830006C0080936B008FEF97E823E1815090402C
:100840002040E1F700C000009A9B1FC080916B0020
:1008500090916C000996813F910548F480916B005E
:1008600090916C00099690936C0080936B0080913E
:100870006B0090916C0027DC8FEF93ED20E38150AB
:1008800090402040E1F700C00000999B37C0809164
:100890006B0090916C00892B49F080916B009091D6
:1008A0006C00019790936C0080936B008FEF97E83A
:1008B00023E1815090402040E1F700C00000999B67
:1008C0001DC080916B0090916C00099748F0809159
:1008D0006B0090916C00099790936C0080936B0073
:1008E00080916B0090916C00EEDB8FEF93ED20E335
:1008F000815090402040E1F700C0000080916B00E3
:1009000090916C00E0DB9B9945C0989B7ECF8091D5
:100910006B0090916C00892B09F477CF8FEF9BE7E8
:1009200022E9815090402040E1F700C00000989BF0
:10093000ECCFC19AC098D0936F0080917E009091C7
:100940007F0020918400B70155D1269FC001279FC9
:10095000900D112490936700809366009EDBC2E0A7
:10096000AECE8FEF9BE722E9815090402040E1F727
:1009700000C000009B9B04C010937F0000937E008A
:100980009B99FECF2BCF83B3C82FC17080FD2BCF97
:10099000C92F2ECF8FEF9BE722E981509040204056
:1009A000E1F700C000009B9B05C010926C00109204
:1009B0006B00C0E09B99FECFA6CFCF9380E07BDB9E
:1009C0008536B8F184E68093840084E074DB8093FC
:1009D0008E0081E070DB80938B0085E06CDB809380
:1009E000890086E068DB8093880087E064DB809381
:1009F000900082E060DB80938F0088E05CDB22E384
:100A0000829FC0011124909386008093850088E026
:100A100052DBC82F89E04FDBC89FC001112490939F
:100A20008D0080938C0083E046DB80938700CF911C
:100A3000089580E040DBC7CF1F93CF93DF9300D0B2
:100A400000D0CDB7DEB7C49ABA9A0EDB8091900081
:100A500090E099BD88BD11E080916F00811108C0C0
:100A60000F900F900F900F90DF91CF911F910895ED
:100A7000F89480918200882329F166DC90917000BF
:100A800080918800981709F46CC0809170008F5F86
:100A900080937000209180003091810080917100DE
:100AA00090917200A0917300B0917400820F931F17
:100AB000A11DB11D8093710090937200A0937300EB
:100AC000B0937400789480916E00811105C080917C
:100AD0006B0090916C00F7DA20918900809175008D
:100AE000909176002817190608F461C010936D00E4
:100AF00080916B0090916C00892B21F410927F0003
:100B000010927E0080918000909181008536910541
:100B100008F0A2CF80916B0090916C00892B09F0B6
:100B20009BCF10926D00C09A8EB58D7F8EBDC298FE
:100B3000BA9819BC18BCC498A8ECB0E0B0937F0078
:100B4000A0937E0010926C0010926B0010927100C6
:100B500010927200109273001092740010926F0045
:100B60007BCF8091710090917200A0917300B09141
:100B7000740089839A83AB83BC832091880030E022
:100B800050E040E0BC01CD0149D02093710030938A
:100B900072004093730050937400E7DB1092710071
:100BA0001092720010927300109274008BCF10920A
:100BB0006D009ECFF89461DA52DA7BDA8091900072
:100BC00090E099BD88BDF9DE88EC90E090937F00BD
:100BD00080937E0080917E0090917F0074DA7894FB
:100BE00080916F00882321F08130D1F725DFF8CF85
:100BF00053DDF6CFAA1BBB1B51E107C0AA1FBB1FC9
:100C0000A617B70710F0A61BB70B881F991F5A9598
:100C1000A9F780959095BC01CD010895A1E21A2E07
:100C2000AA1BBB1BFD010DC0AA1FBB1FEE1FFF1F90
:100C3000A217B307E407F50720F0A21BB30BE40BE0
:100C4000F50B661F771F881F991F1A9469F7609527
:100C50007095809590959B01AC01BD01CF010895E1
:100C6000F894FFCF73CA82CA83CA84CA85CA86CA67
:080C700087CA88CA89CA8ACA32
:060C780004FFFFFFFF0076
:00000001FF
